:1017940073717274003D0025732025640025660072
:1017A4006C6F6731300073696E00636F730074612E
:0817B4006E00636C65617200B8
:10175E002032220000000000000000000000000007
:10176E00000000000000000000000000000000006B
:10177E00000000000000000000000000000000005B
:05178E00000000000056
:10182400D3EF9400EE9400400F7DC77C01DCFEDD15
:08183400FAEF1F70EB1E80E8C3
:01183C002289
:100D9100E4F554F555F556F557F558F55CF55BF561
:100DA1005AF5591217E31214068B568A5789587847
:100DB100947C177DFF1207F0EF6003020E56782234
:100DC1007C00FDAB56AA57A9581208D980687899BA
:100DD1007C177DFFAB56AA57A9581207F0EF606741
:100DE1001214068B568A57895812054FFFC3943047
:100DF10040DCEFD3943950D6EFFB7A00AE54AF55B7
:100E01007C007D0A1205A7EF2BFFEA3ECF24D0F527
:100E110055EF34FFF5547560FF75611775629B7569
:100E21006300756400756522F5668555677B007AF8
:100E310000792212097E7B007A007922756201E431
:100E4100FDFF1216758087AC54AD55E412000812EF
:100E510014E602110378A47C177DFFAB56AA57A9AB
:100E6100581207F0EF6003020F0278227C00FDABFD
:100E710056AA57A9581208D9806878997C177DFF1E
:100E8100AB56AA57A9581207F0EF60671214068BE8
:100E9100568A57895812054FFFC3943040DCEFD36F
:100EA100943950D6EFFB7A00AE54AF557C007D0AE1
:100EB1001205A7EF2BFFEA3ECF24D0F555EF34FF03
:100EC100F5547560FF75611775629B7563007564F4
:100ED10000756522F5668555677B007A00792212D7
:100EE100097E7B007A007922756201E4FDFF12160A
:100EF100758087AC54AD55E412000812130102113C
:100F01000378AA7C177DFFAB56AA57A9581207F0A0
:100F1100EF6003020FAE78227C00FDAB56AA57A901
:100F2100581208D9806878997C177DFFAB56AA576B
:100F3100A9581207F0EF60671214068B568A578979
:100F41005812054FFFC3943040DCEFD3943950D68B
:100F5100EFFB7A00AE54AF557C007D0A1205A7EF76
:100F61002BFFEA3ECF24D0F555EF34FFF5547560E1
:100F7100FF75611775629B75630075640075652265
:100F8100F5668555677B007A00792212097E7B0020
:100F91007A007922756201E4FDFF1216758087AC33
:100FA10054AD55E41200081211C102110378AE7C50
:100FB100177DFFAB56AA57A9581207F0EF6003023D
:100FC100105A78227C00FDAB56AA57A9581208D9AD
:100FD100806878997C177DFFAB56AA57A9581207EC
:100FE100F0EF60671214068B568A57895812054F25
:100FF100FFC3943040DCEFD3943950D6EFFB7A0035
:10100100AE54AF557C007D0A1205A7EF2BFFEA3ED7
:10101100CF24D0F555EF34FFF5547560FF75611796
:1010210075629B756300756400756522F56685556B
:10103100677B007A00792212097E7B007A0079228F
:10104100756201E4FDFF1216758087AC54AD55E45D
:101051001200081211AB02110378B27C177DFFABAD
:1010610056AA57A9581207F0EF60030211377822E8
:101071007C00FDAB56AA57A9581208D98068789907
:101081007C177DFFAB56AA57A9581207F0EF60678E
:101091001214068B568A57895812054FFFC3943094
:1010A10040DCEFD3943950D6EFFB7A00AE54AF5504
:1010B1007C007D0A1205A7EF2BFFEA3ECF24D0F575
:1010C10055EF34FFF5547560FF75611775629B75B7
:1010D1006300756400756522F5668555677B007A46
:1010E10000792212097E7B007A007922756201E47F
:1010F100FDFF1216758087AC54AD55E4120008123D
:1011010011F38F5C8E5B8D5A8C597560FF75611779
:101111007562A18F668E658D648C637B007A007920
:101121002212097E7B007A0079227562017D01E439
:10113100FF121675801878B67C177DFFAB56AA573B
:10114100A9581207F0EF7006FD7F01121806E4F5A9
:1011510054F555FE7F32FDFB7A0079221208F60222
:021161000DA7D8
:0300000002158C5A
:0C158C00787FE4F6D8FD7581780215D355
:10180600C2A2ED24FF92A0C2A18F807F017E0012AA
:0E1816001824D2A27F057E00121824C2A2223E
:0E185200ED75F040A424802FFFE4FD0218067F
:07186000E4FD7F0102180600
:0816CF008F088D098A0A8B0BBC
:1016D700E4F50CAF0BAE0AEF4E600B7C007D0A12EF
:1016E70005B9050C80F1E50B450A6031E508250CC5
:1016F700FFAD09121852AE0AAF0B7C007D0A120526
:10170700B9ED2430FF7D01121806AE0AAF0B7C003D
:0D1717007D0A1205B98E0A8F0B150C80C9D2
:0117240022A2
:0A1675008F5D8D5E8B5F8A608961D6
:10167F00E4F563E562B4011312183DC374109FFFC4
:10168F00E49EC313EF13FFAD5E8004AD5EAF5D123A
:10169F001852E4F563AB5FAA60A96112183DC3E568
:1016AF00639FE49E5019AB5FAA60A9618563827541
:0F16BF008300120568FF7D01121806056380D6AF
:0116CE0022F9
:1017E300E4FD7F38121806E4FD7F0C121806E4FDB1
:1017F3007F06121806E4FD7F01121806E4FD7F80C0
:03180300021806C2
:101725003000310032003300340035003600370018
:1017350038003900636C656172003D002B002D0097
:101745002A0073717274006C6F6731300073696EB3
:0917550000636F730074616E0003
:10161800E4F55DF55E7590F0C2A7E59064F0604A68
:101628007F0A7E00121824E59064F0603DE590F48E
:1016380054F0F55D75900FD2A7E590B40F0820A778
:1016480005435D058007E590F4540F425DE55EC3F0
:1016580094325013E590B40F0320A70B7F647E00EB
:0C166800121824055E80E6AF5D227F00B2
:011674002253
:10140600E4FF121618EF12064C14801114871214FA
:101416008E1414BF1514A318146B21147222147998
:101426002414C62514AA28145641145D4214644493
:1014360014CD4514B148149581144F82149C84141C
:10144600D48514B888000014DB7BFF7A177925222F
:101456007BFF7A177927227BFF7A177929227BFF70
:101466007A17792B227BFF7A17792D227BFF7A1741
:10147600792F227BFF7A177931227BFF7A1779330E
:10148600227BFF7A177935227BFF7A177937227B01
:10149600FF7A177939227BFF7A17793F227BFF7A09
:1014A600177941227BFF7A177943227BFF7A1779D6
:1014B60045227BFF7A177947227BFF7A17794C22E0
:1014C6007BFF7A177952227BFF7A177956227BFFA8
:0B14D6007A17795A227B007A00790017
:0114E10022E8
:1000030075F020800E75F010800575F0087D007E78
:10001300007F003392D530D50312060EEC33401027
:10002300EF33FFEE33FEED33FDEC33FCD5F0ED2281
:0E003300E5F0247EA2D513CC92E7CDCEFF22BD
:10092200E5742460F8E6057422785D300702786089
:10093200E475F00112063C02054F2000EB7F2ED237
:10094200008018EF540F2490D43440D4FF30040BAD
:10095200EF24BFB41A0050032461FFE5756002154D
:10096200750578E5787002057730070D785DE475D6
:10097200F00112063CEF0205950217BC7403D20780
:100982008003E4C207F5748B5D8A5E895FE4F575C6
:10099200F577F578E57560077F2012095D80F575BA
:1009A20076FFC201C200C202C203C205C206C20869
:1009B20012092BFF700D3007057F0012096EAF7808
:1009C200AE7722B4255FC2D5C20412092BFF24D010
:1009D200B40A00501A75F00A787530D50508B6FFCA
:1009E2000106C6A426F620D5047002D20380D924BB
:1009F200CFB41A00EF5004C2E5D204020C5BD2015C
:100A020080C6D20080C0D20280BCD2D580BAD205C4
:100A120080B47F2012095D2002077401B575004081
:100A2200F1120922FF12095D020996D208D206804C
:100A320095120922FB120922FA120922F94A4B7075
:100A42000679527A0D7BFF20022EE575602A7E0020
:100A52008E8275830012056860060EEE657670F070
:100A6200C2D5EBC0E0EAC0E0E9C0E0EE120CBBD0B8
:100A7200E0F9D0E0FAD0E0FB12054FFF60AAEBC02C
:100A8200E0EAC0E0E9C0E012095DD0E02401F9D05B
:100A9200E03400FAD0E0FBE5760460DCD576D9805C
:100AA20087D20280A2120C9E60F7E57670010412D2
:100AB2000360A976600DE576600914F576120D459E
:100AC200EF60F3EA30E702F404C3995077EAF425C1
:100AD200760430E701E404F576800D120C9E60C1C5
:100AE200EA05762576120360EA7873F630E701E4C8
:100AF200257604D5760420050114120CBBE4C0E06F
:100B0200120D457873E6601320E70714F6120945C3
:100B1200802204F6D0E014C0E07F00120945E57699
:100B2200600712093C1576800B30050312093CD090
:100B3200E0020996D0E00480C5120C9E60A0E57622
:100B4200041203607873EAF6E57620050260010478
:050B52002404120CBB9D
:100B570074FF04C0E0120D45120945E57620050231
:100B6700600312093CD0E0B576E87F4512094F785B
:100B770073E67F2B30E7047F2DF404C0E012095D94
:100B8700D0E075F00A84C0F0120946D0E012094699
:100B9700020996791080027908C206C2088008D235
:100BA700D5790A8004790AC2D5E576047002F5760C
:100BB700E4FAFDFEFF120922FC7B0820011312094B
:100BC70022FD7B1030000A120922FE120922FF7B48
:100BD70020EC3382D592D55013C3E43000069FFF33
:100BE700E49EFEE42001039DFDE49CFCE4CBF8C2F7
:100BF70001EC700CCFCECDCCE824F8F870F3801759
:100C0700C3EF33FFEE33FEED33FDEC33FCEB33FB89
:100C1700994002FB0FD8E9EB300105F8D0E0C44852
:100C2700B201C0E00AEC4D4E4F78207B0070C2EA5B
:100C3700B5760040BCC0E0120CBDD0F0D0E020017A
:100C470004C4C0E0C4B201C0F0120946D0F0D5F028
:100C5700EB02099612064C0A33530B9A580A044CB6
:100C67000A00420B9E4F0BA6440BA6490A19430BD9
:100C7700AC550ADD460B3B450AA7470D72500A08DB
:100C87002D0A0C2E0A2F2B0A10230A2D200D5B2A62
:100C970009C84800000A27E576B4FF0375760612EF
:100CA7000922FC120922FD120922FE120922FF78ED
:100CB7006C02038F790AA2D5200314300509B910F5
:100CC700020404B9080104A2D52006025001042039
:100CD70002689202B575005034C0E07F20300319D6
:100CE7007F30A20272067205500F120D14C202C2A3
:100CF70006C205C2087F30800F300503E9C0E01245
:100D0700095D300503D0E0F9D0E0B575CC300517A3
:100D17007F30B9100C12095D7F583004077F788047
:100D270003B9080312095D3002057F2D02095D7FB3
:100D3700202008F87F2B2006F322920280CF7F0025
:100D4700B407005005246CF8E6FF22286E756C6C1A
:100D57002900D2011209223001F8C201787530D575
:100D67000108F60209C82D504349581209222403E5
:100D7700B405004001E4900D6D9312094E743A12C8
:0A0D8700094ED203757504020B9AA1
:1012D1003E9248DA3ECCCCCD3F2AAAAB400000007A
:1012E1003F8000003F9837F03FB504F33FD744FCFF
:1012F1003E3172173EB172173F0515913EDE5BD943
:10130100D2008002C200EDD2E7F8CD33EC33047095
:101311000BBD800592D502008002007640FBD314FC
:1013210060F2F5F07C3FEE7A00C39496C8948B404E
:10133100230AC89469C8941A401A0AC89468C894C0
:101341001F40110AC8945AC89425400805F07A0034
:10135100CDC2E7CDC0F08C5D8D5E8E5F8F60EA23DC
:1013610023C0E024E1F582E43412F58312062C1245
:101371000092ECC0E0EDC0E0EEC0E0EFC0E012068C
:101381001CA85DA95EAA5FAB6012008ED0E0FBD005
:10139100E0FAD0E0F9D0E0B2E7F812028C8C5D8D72
:1013A1005E8E5F8F609012D17403120492A85DA9C2
:1013B1005EAA5FAB60120183D0E0600F24EDF5827D
:1013C100E43412F58312062C1200928C5D8D5E8E30
:1013D1005F8F60D0E0C3947FFDE49400FC120008AD
:1013E1007B187A727931783F120183A85DA95EAAD0
:1013F1005FAB6012009230000B7BD97A5B79DE78AB
:051401003E12018322F0
:1014E20002007622EDA2E7D2E7F9EC3340F260F394
:1014F200B4FF08ED547F70E8020080F82481C2E056
:10150200C0E0F40428FAC313FCED92E7FD8C5D8D74
:101512005E8E5F8F60EEA2E7E9BA7F02C3133400EA
:101522009400FA75F091A4E5F013F494FE8AF0A405
:1015320033E5F033248CD313FDE492E7FE7F007C85
:101542003F758302ECC0E0F8EDC0E0F9EEC0E0FACE
:10155200EFC0E0FBAC5DAD5EAE5FAF6012028CD05F
:10156200E0FBD0E0FAD0E0F9D0E0F8120092ED64AE
:1015720080FD30E7011CD583CBED33CC33F8D0E0CE
:0A158200A2E71328C313CC13FD22C7
:101163003A70FA83BCAAE9E43E81E0F8BF9DE9E660
:101173003F80000039283C1ABB9969663DA335E3DB
:10118300BF255DE73FC90FDB418DDBCCC44936EE9C
:1011930045C9913FC5B0F83D3F800000C317F53402
:1011A300452FFA73C60AFDDD12125204A2E1920022
:1011B3001420E01590116374041204928026121215
:1011C3005230E102B20020E0EB8C5D8D5E8E5F8FCA
:1011D300609011777404120492A85DA95EAA5FABB4
:1011E30060120183ED4C6007300004EC6480FC2244
:1011F300121252C0E08C5D8D5E8E5F8F6090119BEA
:101203007403120492A85DA95EAA5FAB6012018306
:10121300ECC55DFCEDC55EFDEEC55FFEEFC560FF91
:1012230090118B7403120492D082A85DA95EAA5F09
:10123300AB60E58230E00712028CB20080A6EFCBF0
:10124300FFEECAFEEDC9FDECC8FC12028C8095EDE1
:1012530033EC547FCC33920024605007D0E0D0E0CD
:101263000200767B837AF97922783E120183EDF9C5
:1012730033ECF83324815011EFFBEEFA12032912F9
:101283000003ECB2E7FC120092ED33EC33602F2441
:1012930003F8C313FCED92E7FDE82481E4501FEC4F
:1012A300F8EDF9EEFAEFFB120329EF04C2E0FCF5C7
:1012B3008212000DECB2E7FC120092E58203FAED14
:0E12C30033EC3360071413FCED92E7FDEA22D2
:10004100E9D2E7C933E833F892D5EDD2E7CD33EC05
:0700510033FC5002B2D5227E
:10005800EC30E7100FBF000C0EBE00080DBD000409
:100068000BEB6014A2D5EB13FCED92E7FD2274FFB5
:10007800FCFDFEFF22E480F8A2D574FF13FC7D800E
:03008800E480EF22
:10008B00020076E86480F8E933E83360110460F02D
:10009B00ED33EC337009E8FCE9FDEAFEEBFF2204DB
:1000AB0060DED3EB9FEA9EE99DE8C2E78CF0C2F7D6
:1000BB0095F0400CE8CCF8E9CDF9EACEFAEBCFFBA2
:1000CB0012004185D0F05804700320D5B3E80470BA
:1000DB00075002B2D502008092D5EC0460F7E4CC55
:1000EB00C0E0C398F8603B94186008400DD0E0FB6B
:1000FB00020058E4FBFAC9FC8028E830E406E4C9A6
:10010B00FBE4CAFCE830E305E4C9CACBFCE85407BE
:10011B006010F8C3E913F9EA13FAEB13FBEC13FCC9
:10012B00D8F130F52FC3E49CFCEF9BFFEE9AFEED6C
:10013B0099FDD0E0FBEF4E4D4C701222DB03020019
:10014B007DEC2CFCEF33FFEE33FEED33FDED30E7B2
:10015B00EB020058EF2BFFEE3AFEED39FDD0E0FB42
:10016B0050130BBB0003020080ED13FDEE13FEEFEB
:08017B0013FFEC13FC02005815
:10018300EC4D6011E8497017ED33EC3304600DE476
:10019300FCFFFEFD22E933E8330470F80200761217
:1001A300004158046009E4CC248150062850090218
:1001B300008028400302007DC0E0EB4A7044B98010
:1001C30006D0E0FB02006CEF4E701CBD8008EBFF15
:1001D300EAFEE9FD80EBE98DF0A4FEE5F002026C96
:1001E300E9CDF9EAFEEBFFEF89F0A4FCE5F0CE8957
:1001F300F0A42EFFE435F0CD89F0A42DFEE435F014
:100203008067EF4E7005BD80D780C3EF8BF0A4AC41
:10021300F0EE8BF0A42CFCE435F0F8EF8AF0A42C7C
:10022300E5F038FCE433CB8DF0A42CFCE5F03BF88F
:10023300EE8AF0A42CFCE5F038F8E433CF89F0A47F
:100243002CFCE5F038CF3400CE89F0A42FFFE5F085
:100253003EFEE433C98DF0A42EFEE5F039CD8AF0DD
:10026300A42FFFE5F03EFEE43DFD33D0E0FB500755
:100273000BBB000F020080EC2CFCEF33FFEE33FED0
:06028300ED33FD020058FE
:10028900020080EC5D046005E85904700302007601
:10029900120041580460F6EC4860F2EC7004FDFE6F
:1002A900FF22C860DB2481C85009C3986002500648
:1002B90002007D9850CAF582E9294B4A7005AB8244
:1002C90002006C75F0007C1A7880C3EF9BEE9AED02
:1002D90099400DC3EF9BFFEE9AFEED99FDE842F0C0
:1002E900DC23ACF0D0E0FFD0E0FED0E0FDAB822013
:1002F900E7101BEB60BAEC2CFCEF33FFEE33FEED9D
:1003090033FD020058E803F830E705C0F075F00046
:10031900EF2FFFEE33FEED33FD40B830E7C280AA80
:10032900EDD2E7CD33EC3392D524814006E4FFFECC
:10033900FDFC22FCE4CFCECDCC24E0501174FF802B
:10034900EDC3CC13CCCD13CDCE13CECF13CF0470C8
:07035900F030D5DE02060EB4
:10036000F920E72824F950037907E4F42402FB1864
:10037000DBFDE624FB5014E9600DE4F618E604F614
:0F038000B40A08E4F6D9F57401F60A22C2D522B0
:10038F00ED33EC3392D5FA602AB4FF33EDC2E77B3D
:10039F00FF60067A0379B4E4227A0379BD20D5048D
:1003AF007A0379B8224E614E002B494E46002D49F3
:1003BF004E4600E47A08F608DAFC7B00740722E860
:1003CF00C0E0ECC0E0EDC0E0EEC0E0EFC0E0EA75E9
:1003DF00F010A4CAABF075F04DA42BFBE435F0FC84
:1003EF00EA2410FAEB34C5FBEC34D9FCEDC2E7FF7D
:1003FF0075F056A4F42411C5F0F434C58FF0A42A77
:10040F00E5F03BE43CF620E71412050FD0E0FFD0F7
:10041F00E0FED0E0FDD0E0FC12028C8014F4041258
:10042F00050FD0E0FFD0E0FED0E0FDD0E0FC1201E0
:10043F0083D0E0F8E6FAEDD2E7CD33EC332482FB3C
:10044F00E4C3CF33CFCE33CECD33CD33DBF37B0706
:10045F0075F00A846004F6081B0AE5F0F6088FF0C1
:10046F00740AA4FFACF08EF0740AA42CFEACF0500A
:10047F00010C8DF0740AA42CFDE435F0F608DBDED8
:03048F00740722CD
:10049200C0E0EFFBEEFAEDF9ECF8120183D0E0F5E3
:1004A200F0EFFBEEFAEDF9ECF812061CA3A3A3A3FE
:1004B200E8C0E0E9C0E0EAC0E0EBC0E0C0F0120151
:1004C2008312062CA3A3A3A3120092D0F0D0E0FBC8
:0D04D200D0E0FAD0E0F9D0E0F8D5F0D42267
:1004DF003F8000004120000042C80000447A000025
:1004EF00461C400047C35000497424004B189680A7
:1004FF004CBEBC205A0E1BCA6753C21C749DC5AE9E
:10050F00FB60065407601C232312053DEB54386033
:10051F0009120529120538120183ECF8EDF9EEFAEC
:10052F00EFCB22EB12053880F1543803241C9004D2
:10053F00DFFE93FC0EEE93FD0EEE930ECE93FF2295
:10159800020D91E493A3F8E493A34003F68001F2CB
:1015A80008DFF48029E493A3F85407240CC8C33354
:1015B800C4540F4420C8834004F456800146F6DF23
:1015C800E4800B010204081020408090175EE47E3E
:1015D800019360BCA3FF543F30E509541FFEE49318
:1015E800A360010ECF54C025E060A840B8E493A3DF
:1015F800FAE493A3F8E493A3C8C582C8CAC583CA0A
:10160800F0A3C8C582C8CAC583CADFE9DEE780BEC1
:011793000055
:10054F00BB010689828A83E0225002E722BBFE02AA
:09055F00E32289828A83E49322DD
:10056800BB010CE58229F582E5833AF583E0225048
:1005780006E92582F8E622BBFE06E92582F8E22292
:0D058800E58229F582E5833AF583E49322AC
:10059500BB010689828A83F0225002F722BBFE0145
:0205A500F3223F
:1005A700EF8DF0A4A8F0CF8CF0A428CE8DF0A42E68
:0205B700FE2222
:1005B900BC000BBE0029EF8DF084FFADF022E4CC26
:1005C900F875F008EF2FFFEE33FEEC33FCEE9DECEF
:1005D900984005FCEE9DFE0FD5F0E9E4CEFD22ED35
:1005E900F8F5F0EE8420D21CFEADF075F008EF2F7F
:1005F900FFED33FD4007985006D5F0F222C398FD70
:050609000FD5F0EA220C
:0E060E00C3E49FFFE49EFEE49DFDE49CFC22FD
:10061C00E493FC740193FD740293FE740393FF2224
:10062C00E493F8740193F9740293FA740393FB2224
:10063C00FAE6FB0808E6F925F0F618E6CA3AF622BF
:10064C00D083D082F8E4937012740193700DA3A33D
:10065C0093F8740193F5828883E473740293686051
:06066C00EFA3A3A380DF51
:1017BC00EFB40A07740D1217C7740A309811A89960
:1017CC00B8130CC2983098FDA899C298B811F6308D
:0717DC0099FDC299F5992265
:10067200E3F5F009E208B5F06D606B80F3E3F5F0A5
:1006820009E608B5F060605E80F387F009E608B518
:10069200F054605280F487F009E208B5F0486046F1
:1006A20080F488828C8387F009E0A3B5F038603645
:1006B20080F488828C8387F009E493A3B5F02760E5
:1006C2002580F388828C83E3F5F009E0A3B5F01668
:1006D200601480F388828C83E3F5F009E493A3B578
:1006E200F004600280F202079D808580E7808E80A0
:1006F200D2803C8015806C807E809B80B5808B8010
:10070200A1804F8070803A0207A989828A83ECFA1D
:10071200E493F5F0A3C8C582C8CCC583CCE493A307
:10072200C8C582C8CCC583CCB5F070606E80E18943
:10073200828A83E493F5F0A3E208B5F05E605C8000
:10074200F289828A83E0F5F0A3E608B5F04D604BAA
:1007520080F389828A83E0F5F0A3E208B5F03C6079
:100762003A80F389828A83E493F5F0A3E608B5F030
:100772002A602880F2805389828A83ECFAE493F516
:10078200F0A3C8C582C8CCC583CCE0A3C8C582C8C3
:10079200CCC583CCB5F004600280E27FFFB5F002E5
:1007A2000F2240027F012289828A83ECFAE0F5F06F
:1007B200A3C8C582C8CCC583CCE0A3C8C582C8CCB7
:1007C200C583CCB5F0D560D380E389828A83ECFA05
:1007D200E0F5F0A3C8C582C8CCC583CCE493A3C816
:1007E200C582C8CCC583CCB5F0B160AF80E288F0D9
:1007F200ED2402B4040050A3F582EB2402B40400F9
:0B080200509923234582239006EB73DE
:10080D00E709F60870FA8046E709F20870FA803EAB
:10081D0088828C83E709F0A370FA807EE309F608DD
:10082D0070FA8076E309F20870FA806E88828C8304
:10083D00E309F0A370FA806289828A83E0A3F60847
:10084D0070FA805689828A83E0A3F20870FA804A92
:10085D0080D280FA80C680D4806580F2803180108D
:10086D0080A680EA809A80A880DA80E280CA8031F2
:10087D0089828A83ECFAE493A3C8C582C8CCC58368
:10088D00CCF0A3C8C582C8CCC583CC70E9800D89D6
:10089D00828A83E493A3F60870F9ECFAA9F0EDFBD4
:1008AD002289828A83ECFAE0A3C8C582C8CCC583AD
:1008BD00CCF0A3C8C582C8CCC583CC70EA80DD89D5
:1008CD00828A83E493A3F20870F980CE88F0ED2438
:1008DD0002B4040050C4F582EB2402B4040050BAF3
:0908ED00232345822390085D736A
:10183D00E4FFFE12054F600C0FEF70010E09E97009
:05184D00F20A80EF2209
:1008F600EF4E6012EF60010EEDBB010B89828A8319
:10090600F0A3DFFCDEFA2289F05007F709DFFCA925
:0C091600F022BBFEFCF309DFFCA9F0227C
:00000001FF
