:1018F50073717274003D0025732025640025660010
:101905006C6F6731300073696E00636F73007461CB
:081915006E00636C6561720055
:1018BF0020322200000000000000000000000000A5
:1018CF000000000000000000000000000000000009
:1018DF0000000000000000000000000000000000F9
:0518EF000000000000F4
:1019A200D3EF9400EE9400400F7DC77C01DCFEDD96
:0819B200FAEF1F70EB1E80E844
:0119BA00220A
:100E8700E4F554F555F556F557F558F55CF55BF56A
:100E97005AF55912194412154C8B568A57895878A6
:100EA700F57C187DFF1208E6EF6003020F5C7822DD
:100EB7007C00FDAB56AA57A9581209CF807778FA5C
:100EC7007C187DFFAB56AA57A9581208E6EF607742
:100ED70012154C8B568A578958120645FFC3943012
:100EE70040DCEFD3943950D67D01E4FF1219E7AB0C
:100EF70056AA57A958120645FB7A00AE54AF557C3F
:100F0700007D0A12069DEF2BFFEA3ECF24D0F55550
:100F1700EF34FFF5547560FF7561187562FC7563F2
:100F270000756400756522F5668555677B007A0054
:100F37007922120A747B007A007922756201E4FD36
:100F4700FF1217CB020EC5AC54AD55E412000812C0
:100F5700163C02124978057C197DFFAB56AA57A9A2
:100F6700581208E6EF600302101878227C00FDABE8
:100F770056AA57A9581209CF807778FA7C187DFFAF
:100F8700AB56AA57A9581208E6EF607712154C8B93
:100F9700568A578958120645FFC3943040DCEFD371
:100FA700943950D67D01E4FF1219E7AB56AA57A929
:100FB70058120645FB7A00AE54AF557C007D0A12E5
:100FC700069DEF2BFFEA3ECF24D0F555EF34FFF512
:100FD700547560FF7561187562FC75630075640070
:100FE700756522F5668555677B007A007922120AB6
:100FF700747B007A007922756201E4FDFF1217CB3A
:10100700020F81AC54AD55E41200081214470212C6
:1010170049780B7C197DFFAB56AA57A9581208E6E9
:10102700EF60030210D478227C00FDAB56AA57A9C3
:10103700581209CF807778FA7C187DFFAB56AA57EC
:10104700A9581208E6EF607712154C8B568A578914
:1010570058120645FFC3943040DCEFD3943950D67D
:101067007D01E4FF1219E7AB56AA57A958120645A6
:10107700FB7A00AE54AF557C007D0A12069DEF2B1C
:10108700FFEA3ECF24D0F555EF34FFF5547560FFE6
:101097007561187562FC756300756400756522F5E6
:1010A700668555677B007A007922120A747B007A7D
:1010B700007922756201E4FDFF1217CB02103DACE7
:1010C70054AD55E4120008121307021249780F7C39
:1010D700197DFFAB56AA57A9581208E6EF6003021D
:1010E700119078227C00FDAB56AA57A9581209CF58
:1010F700807778FA7C187DFFAB56AA57A958120853
:10110700E6EF607712154C8B568A578958120645B9
:10111700FFC3943040DCEFD3943950D67D01E4FF10
:101127001219E7AB56AA57A958120645FB7A00AE23
:1011370054AF557C007D0A12069DEF2BFFEA3ECF88
:1011470024D0F555EF34FFF5547560FF75611875B8
:1011570062FC756300756400756522F566855567E1
:101167007B007A007922120A747B007A0079227553
:101177006201E4FDFF1217CB0210F9AC54AD55E440
:101187001200081212F102124978137C197DFFAB85
:1011970056AA57A9581208E6EF600302127D782273
:1011A7007C00FDAB56AA57A9581209CF807778FA69
:1011B7007C187DFFAB56AA57A9581208E6EF60774F
:1011C70012154C8B568A578958120645FFC394301F
:1011D70040DCEFD3943950D67D01E4FF1219E7AB19
:1011E70056AA57A958120645FB7A00AE54AF557C4C
:1011F700007D0A12069DEF2BFFEA3ECF24D0F5555E
:10120700EF34FFF5547560FF7561187562FC7563FF
:1012170000756400756522F5668555677B007A0061
:101227007922120A747B007A007922756201E4FD43
:10123700FF1217CB0211B5AC54AD55E412000812DA
:1012470013398F5C8E5B8D5A8C597560FF756119E8
:101257007562028F668E658D648C637B007A007978
:1012670022120A747B007A0079227562017D01E4FB
:10127700FF1217CB801878177C197DFFAB56AA573A
:10128700A9581208E6EF7006FD7F01121967E4F509
:1012970054F555FE7F32FDFB7A0079221209EC02E4
:0212A7000E9D9A
:030000000216E203
:0C16E200787FE4F6D8FD758178021729A6
:10196700C2A2ED24FF92A0C2A18F807F017E001248
:0E19770019A2D2A27F057E001219A2C2A222DE
:10198500E4F50DC2A2ED24FF92A0D2A1D2A2E5807A
:0C19950012068B7F017E001219A2C2A274
:0119A1002223
:1019BB00E4F50EFB7A00790EFD121985E50E30E782
:0619CB00037F01227F00F2
:0119D10022F3
:0E19E700ED75F040A424802FFFE4FD02196787
:0719F500E4FD7F0102196708
:081826008F088D098A0A8B0B63
:10182E00E4F50CAF0BAE0AEF4E600B7C007D0A1296
:10183E0006AF050C80F1E50B450A6031E508250C75
:10184E00FFAD091219E7AE0AAF0B7C007D0A120636
:10185E00AFED2430FF7D01121967AE0AAF0B7C008D
:0D186E007D0A1206AF8E0A8F0B150C80C983
:01187B00224A
:0A17CB008F5D8D5E8B5F8A6089617F
:1017D500E4F563E562B401141219D2C3740F9FFFD7
:1017E500E49EC313EF1304FFAD5E8004AD5EAF5DF1
:1017F5001219E7E4F563AB5FAA60A9611219D2C3B8
:10180500E5639FE49E5019AB5FAA60A96185638279
:1018150075830012065EFF7D01121967056380D688
:0118250022A0
:10194400E4FD7F38121967E4FD7F0C121967E4FD8A
:101954007F06121967E4FD7F01121967E4FD7F8099
:03196400021967FE
:10187C0030003100320033003400350036003700C0
:10188C0038003900636C656172003D002B002D003F
:10189C002A0073717274006C6F6731300073696E5B
:1018AC0000636F730074616E0000000000000000A4
:0318BC0000000029
:10176E00E4F567F5687590F0C2A7E59064F0604AFD
:10177E007F0A7E001219A2E59064F0603DE590F4B8
:10178E0054F0F56775900FD2A7E590B40F0820A717
:10179E00054367058007E590F4540F4267E568C37B
:1017AE0094325013E590B40F0320A70B7F647E0094
:0C17BE001219A2056880E6AF67227F00C8
:0117CA0022FC
:10154C00E4785D7C00FD7BFF7A1879B5FE7F0A128A
:10155C00061F12176EEF12074215D61115DD121564
:10156C00E41416151515F91815C12115C82215CF37
:10157C0024161C2516002815AC4115B34215BA4487
:10158C0016234516074815EB8115A58215F284160E
:10159C002A85160E88000016317BFF7A18797C227A
:1015AC007BFF7A18797E227BFF7A187980227BFF69
:1015BC007A187982227BFF7A187984227BFF7A1839
:1015CC007986227BFF7A187988227BFF7A18798AB0
:1015DC00227BFF7A18798C227BFF7A18798E227BFA
:1015EC00FF7A187990227BFF7A187996227BFF7A02
:1015FC00187998227BFF7A18799A227BFF7A1879CE
:10160C009C227BFF7A18799E227BFF7A1879A32281
:10161C007BFF7A1879A9227BFF7A1879AD227BFFA0
:0B162C007A1879B1227B007A00795D0A
:011637002290
:1000030075F020800E75F010800575F0087D007E78
:10001300007F003392D530D503120704EC33401030
:10002300EF33FFEE33FEED33FDEC33FCD5F0ED2281
:0E003300E5F0247EA2D513CC92E7CDCEFF22BD
:100A1800E5742460F8E6057422785D300702786092
:100A2800E475F0011207320206452000EB7F2ED252
:100A3800008018EF540F2490D43440D4FF30040BB6
:100A4800EF24BFB41A0050032461FFE57560021556
:100A5800750578E5787002057730070D785DE475DF
:100A6800F001120732EF02068B02191D7403D20738
:100A78008003E4C207F5748B5D8A5E895FE4F575CF
:100A8800F577F578E57560077F20120A5380F575CC
:100A980076FFC201C200C202C203C205C206C20872
:100AA800120A21FF700D3007057F00120A64AF7823
:100AB800AE7722B4255FC2D5C204120A21FF24D022
:100AC800B40A00501A75F00A787530D50508B6FFD3
:100AD8000106C6A426F620D5047002D20380D924C4
:100AE800CFB41A00EF5004C2E5D204020D51D2016E
:100AF80080C6D20080C0D20280BCD2D580BAD205CE
:100B080080B47F20120A532002077401B575004093
:100B1800F1120A18FF120A53020A8CD208D2068070
:100B280095120A18FB120A18FA120A18F94A4B7099
:100B38000679487A0E7BFF20022EE575602A7E0032
:100B48008E8275830012065E60060EEE657670F082
:100B5800C2D5EBC0E0EAC0E0E9C0E0EE120DB1D0CA
:100B6800E0F9D0E0FAD0E0FB120645FF60AAEBC03E
:100B7800E0EAC0E0E9C0E0120A53D0E02401F9D06D
:100B8800E03400FAD0E0FBE5760460DCD576D98065
:100B980087D20280A2120D9460F7E57670010412E4
:100BA8000360A976600DE576600914F576120E3BB0
:100BB800EF60F3EA30E702F404C3995077EAF425CA
:100BC800760430E701E404F576800D120D9460C1D7
:100BD800EA05762576120360EA7873F630E701E4D1
:100BE800257604D5760420050114120DB1E4C0E081
:100BF800120E3B7873E6601320E70714F6120A3BDF
:100C0800802204F6D0E014C0E07F00120A3BE576AB
:100C18006007120A321576800B300503120A32D0AB
:100C2800E0020A8CD0E00480C5120D9460A0E5763D
:100C3800041203607873EAF6E57620050260010481
:050C48002404120DB1AF
:100C4D0074FF04C0E0120E3B120A3BE5762005024C
:100C5D006003120A32D0E0B576E87F45120A457876
:100C6D0073E67F2B30E7047F2DF404C0E0120A53A6
:100C7D00D0E075F00A84C0F0120A3CD0E0120A3CB4
:100C8D00020A8C791080027908C206C2088008D247
:100C9D00D5790A8004790AC2D5E576047002F57615
:100CAD00E4FAFDFEFF120A18FC7B08200113120A5C
:100CBD0018FD7B1030000A120A18FE120A18FF7B6D
:100CCD0020EC3382D592D55013C3E43000069FFF3C
:100CDD00E49EFEE42001039DFDE49CFCE4CBF8C200
:100CED0001EC700CCFCECDCCE824F8F870F3801762
:100CFD00C3EF33FFEE33FEED33FDEC33FCEB33FB93
:100D0D00994002FB0FD8E9EB300105F8D0E0C4485B
:100D1D00B201C0E00AEC4D4E4F78207B0070C2EA64
:100D2D00B5760040BCC0E0120DB3D0F0D0E020018C
:100D3D0004C4C0E0C4B201C0F0120A3CD0F0D5F03A
:100D4D00EB020A8C1207420B29530C90580AFA4CED
:100D5D000AF6420C944F0C9C440C9C490B0F430C0F
:100D6D00A2550BD3460C31450B9D470E68500AFE1C
:100D7D002D0B022E0B252B0B06230B23200E512A98
:100D8D000ABE4800000B1DE576B4FF03757606120A
:100D9D000A18FC120A18FD120A18FE120A18FF781A
:100DAD006C02038F790AA2D5200314300509B910FE
:100DBD00020404B9080104A2D52006025001042042
:100DCD0002689202B575005034C0E07F20300319DF
:100DDD007F30A20272067205500F120E0AC202C2B5
:100DED0006C205C2087F30800F300503E9C0E0124E
:100DFD000A53300503D0E0F9D0E0B575CC300517B6
:100E0D007F30B9100C120A537F583004077F788059
:100E1D0003B90803120A533002057F2D020A537FCE
:100E2D00202008F87F2B2006F322920280CF7F002E
:100E3D00B407005005246CF8E6FF22286E756C6C23
:100E4D002900D201120A183001F8C201787530D587
:100E5D000108F6020ABE2D50434958120A18240300
:100E6D00B405004001E4900E6393120A44743A12E3
:0A0E7D000A44D203757504020C90BC
:101417003E9248DA3ECCCCCD3F2AAAAB4000000032
:101427003F8000003F9837F03FB504F33FD744FCB7
:101437003E3172173EB172173F0515913EDE5BD9FB
:10144700D2008002C200EDD2E7F8CD33EC3304704E
:101457000BBD800592D502008002007640FBD314B5
:1014670060F2F5F07C3FEE7A00C39496C8948B4007
:10147700230AC89469C8941A401A0AC89468C89479
:101487001F40110AC8945AC89425400805F07A00ED
:10149700CDC2E7CDC0F08C5D8D5E8E5F8F60EA2395
:1014A70023C0E02427F582E43414F58312072212BF
:1014B7000092ECC0E0EDC0E0EEC0E0EFC0E0120744
:1014C70012A85DA95EAA5FAB6012008ED0E0FBD0C8
:1014D700E0FAD0E0F9D0E0B2E7F812028C8C5D8D2B
:1014E7005E8E5F8F609014177403120492A85DA933
:1014F7005EAA5FAB60120183D0E0600F2433F582F0
:10150700E43414F5831207221200928C5D8D5E8EEF
:101517005F8F60D0E0C3947FFDE49400FC12000865
:101527007B187A727931783F120183A85DA95EAA88
:101537005FAB6012009230000B7BD97A5B79DE7863
:051547003E12018322A9
:1016380002007622EDA2E7D2E7F9EC3340F260F33C
:10164800B4FF08ED547F70E8020080F82481C2E0FE
:10165800C0E0F40428FAC313FCED92E7FD8C5D8D1D
:101668005E8E5F8F60EEA2E7E9BA7F02C313340093
:101678009400FA75F091A4E5F013F494FE8AF0A4AE
:1016880033E5F033248CD313FDE492E7FE7F007C2E
:101698003F758302ECC0E0F8EDC0E0F9EEC0E0FA77
:1016A800EFC0E0FBAC5DAD5EAE5FAF6012028CD008
:1016B800E0FBD0E0FAD0E0F9D0E0F8120092ED6457
:1016C80080FD30E7011CD583CBED33CC33F8D0E077
:0A16D800A2E71328C313CC13FD2270
:1012A9003A70FA83BCAAE9E43E81E0F8BF9DE9E619
:1012B9003F80000039283C1ABB9969663DA335E394
:1012C900BF255DE73FC90FDB418DDBCCC44936EE55
:1012D90045C9913FC5B0F83D3F800000C317F534BB
:1012E900452FFA73C60AFDDD12139804A2E1920094
:1012F9001420E0159012A974041204928026121386
:101309009830E102B20020E0EB8C5D8D5E8E5F8F3C
:10131900609012BD7404120492A85DA95EAA5FAB25
:1013290060120183ED4C6007300004EC6480FC22FC
:10133900121398C0E08C5D8D5E8E5F8F609012E114
:101349007403120492A85DA95EAA5FAB60120183BF
:10135900ECC55DFCEDC55EFDEEC55FFEEFC560FF4A
:101369009012D17403120492D082A85DA95EAA5F7B
:10137900AB60E58230E00712028CB20080A6EFCBA9
:10138900FFEECAFEEDC9FDECC8FC12028C8095ED9A
:1013990033EC547FCC33920024605007D0E0D0E086
:1013A9000200767B837AF97922783E120183EDF97E
:1013B90033ECF83324815011EFFBEEFA12032912B2
:1013C9000003ECB2E7FC120092ED33EC33602F24FA
:1013D90003F8C313FCED92E7FDE82481E4501FEC08
:1013E900F8EDF9EEFAEFFB120329EF04C2E0FCF580
:1013F9008212000DECB2E7FC120092E58203FAEDCD
:0E14090033EC3360071413FCED92E7FDEA228A
:10004100E9D2E7C933E833F892D5EDD2E7CD33EC05
:0700510033FC5002B2D5227E
:10005800EC30E7100FBF000C0EBE00080DBD000409
:100068000BEB6014A2D5EB13FCED92E7FD2274FFB5
:10007800FCFDFEFF22E480F8A2D574FF13FC7D800E
:03008800E480EF22
:10008B00020076E86480F8E933E83360110460F02D
:10009B00ED33EC337009E8FCE9FDEAFEEBFF2204DB
:1000AB0060DED3EB9FEA9EE99DE8C2E78CF0C2F7D6
:1000BB0095F0400CE8CCF8E9CDF9EACEFAEBCFFBA2
:1000CB0012004185D0F05804700320D5B3E80470BA
:1000DB00075002B2D502008092D5EC0460F7E4CC55
:1000EB00C0E0C398F8603B94186008400DD0E0FB6B
:1000FB00020058E4FBFAC9FC8028E830E406E4C9A6
:10010B00FBE4CAFCE830E305E4C9CACBFCE85407BE
:10011B006010F8C3E913F9EA13FAEB13FBEC13FCC9
:10012B00D8F130F52FC3E49CFCEF9BFFEE9AFEED6C
:10013B0099FDD0E0FBEF4E4D4C701222DB03020019
:10014B007DEC2CFCEF33FFEE33FEED33FDED30E7B2
:10015B00EB020058EF2BFFEE3AFEED39FDD0E0FB42
:10016B0050130BBB0003020080ED13FDEE13FEEFEB
:08017B0013FFEC13FC02005815
:10018300EC4D6011E8497017ED33EC3304600DE476
:10019300FCFFFEFD22E933E8330470F80200761217
:1001A300004158046009E4CC248150062850090218
:1001B300008028400302007DC0E0EB4A7044B98010
:1001C30006D0E0FB02006CEF4E701CBD8008EBFF15
:1001D300EAFEE9FD80EBE98DF0A4FEE5F002026C96
:1001E300E9CDF9EAFEEBFFEF89F0A4FCE5F0CE8957
:1001F300F0A42EFFE435F0CD89F0A42DFEE435F014
:100203008067EF4E7005BD80D780C3EF8BF0A4AC41
:10021300F0EE8BF0A42CFCE435F0F8EF8AF0A42C7C
:10022300E5F038FCE433CB8DF0A42CFCE5F03BF88F
:10023300EE8AF0A42CFCE5F038F8E433CF89F0A47F
:100243002CFCE5F038CF3400CE89F0A42FFFE5F085
:100253003EFEE433C98DF0A42EFEE5F039CD8AF0DD
:10026300A42FFFE5F03EFEE43DFD33D0E0FB500755
:100273000BBB000F020080EC2CFCEF33FFEE33FED0
:06028300ED33FD020058FE
:10028900020080EC5D046005E85904700302007601
:10029900120041580460F6EC4860F2EC7004FDFE6F
:1002A900FF22C860DB2481C85009C3986002500648
:1002B90002007D9850CAF582E9294B4A7005AB8244
:1002C90002006C75F0007C1A7880C3EF9BEE9AED02
:1002D90099400DC3EF9BFFEE9AFEED99FDE842F0C0
:1002E900DC23ACF0D0E0FFD0E0FED0E0FDAB822013
:1002F900E7101BEB60BAEC2CFCEF33FFEE33FEED9D
:1003090033FD020058E803F830E705C0F075F00046
:10031900EF2FFFEE33FEED33FD40B830E7C280AA80
:10032900EDD2E7CD33EC3392D524814006E4FFFECC
:10033900FDFC22FCE4CFCECDCC24E0501174FF802B
:10034900EDC3CC13CCCD13CDCE13CECF13CF0470C8
:07035900F030D5DE020704BD
:10036000F920E72824F950037907E4F42402FB1864
:10037000DBFDE624FB5014E9600DE4F618E604F614
:0F038000B40A08E4F6D9F57401F60A22C2D522B0
:10038F00ED33EC3392D5FA602AB4FF33EDC2E77B3D
:10039F00FF60067A0379B4E4227A0379BD20D5048D
:1003AF007A0379B8224E614E002B494E46002D49F3
:1003BF004E4600E47A08F608DAFC7B00740722E860
:1003CF00C0E0ECC0E0EDC0E0EEC0E0EFC0E0EA75E9
:1003DF00F010A4CAABF075F04DA42BFBE435F0FC84
:1003EF00EA2410FAEB34C5FBEC34D9FCEDC2E7FF7D
:1003FF0075F056A4F42411C5F0F434C58FF0A42A77
:10040F00E5F03BE43CF620E71412050FD0E0FFD0F7
:10041F00E0FED0E0FDD0E0FC12028C8014F4041258
:10042F00050FD0E0FFD0E0FED0E0FDD0E0FC1201E0
:10043F0083D0E0F8E6FAEDD2E7CD33EC332482FB3C
:10044F00E4C3CF33CFCE33CECD33CD33DBF37B0706
:10045F0075F00A846004F6081B0AE5F0F6088FF0C1
:10046F00740AA4FFACF08EF0740AA42CFEACF0500A
:10047F00010C8DF0740AA42CFDE435F0F608DBDED8
:03048F00740722CD
:10049200C0E0EFFBEEFAEDF9ECF8120183D0E0F5E3
:1004A200F0EFFBEEFAEDF9ECF8120712A3A3A3A307
:1004B200E8C0E0E9C0E0EAC0E0EBC0E0C0F0120151
:1004C20083120722A3A3A3A3120092D0F0D0E0FBD1
:0D04D200D0E0FAD0E0F9D0E0F8D5F0D42267
:1004DF003F8000004120000042C80000447A000025
:1004EF00461C400047C35000497424004B189680A7
:1004FF004CBEBC205A0E1BCA6753C21C749DC5AE9E
:10050F00FB60065407601C232312053DEB54386033
:10051F0009120529120538120183ECF8EDF9EEFAEC
:10052F00EFCB22EB12053880F1543803241C9004D2
:10053F00DFFE93FC0EEE93FD0EEE930ECE93FF2295
:1016EE00020E87E493A3F8E493A34003F68001F27D
:1016FE0008DFF48029E493A3F85407240CC8C333FD
:10170E00C4540F4420C8834004F456800146F6DFCB
:10171E00E4800B01020408102040809018BFE47E84
:10172E00019360BCA3FF543F30E509541FFEE493C0
:10173E00A360010ECF54C025E060A840B8E493A387
:10174E00FAE493A3F8E493A3C8C582C8CAC583CAB2
:10175E00F0A3C8C582C8CAC583CADFE9DEE780BE6A
:0118F40000F3
:10054F00E709F608DFFA8046E709F208DFFA803E8E
:10055F0088828C83E709F0A3DFFA8032E309F6087B
:10056F00DFFA8078E309F208DFFA807088828C83E3
:10057F00E309F0A3DFFA806489828A83E0A3F60897
:10058F00DFFA805889828A83E0A3F208DFFA804C71
:10059F0080D280FA80C680D4806980F28033801048
:1005AF0080A680EA809A80A880DA80E280CA8033B1
:1005BF0089828A83ECFAE493A3C8C582C8CCC58329
:1005CF00CCF0A3C8C582C8CCC583CCDFE9DEE780F9
:1005DF000D89828A83E493A3F608DFF9ECFAA9F078
:1005EF00EDFB2289828A83ECFAE0A3C8C582C8CCCE
:1005FF00C583CCF0A3C8C582C8CCC583CCDFEADEE7
:10060F00E880DB89828A83E493A3F208DFF980CC48
:10061F0088F0EF60010E4E60C388F0ED2402B40441
:10062F000050B9F582EB2402B4040050AF232345E8
:06063F00822390059F7369
:10064500BB010689828A83E0225002E722BBFE02B3
:09065500E32289828A83E49322E6
:10065E00BB010CE58229F582E5833AF583E0225051
:10066E0006E92582F8E622BBFE06E92582F8E2229B
:0D067E00E58229F582E5833AF583E49322B5
:10068B00BB010689828A83F0225002F722BBFE014E
:02069B00F32248
:10069D00EF8DF0A4A8F0CF8CF0A428CE8DF0A42E71
:0206AD00FE222B
:1006AF00BC000BBE0029EF8DF084FFADF022E4CC2F
:1006BF00F875F008EF2FFFEE33FEEC33FCEE9DECF8
:1006CF00984005FCEE9DFE0FD5F0E9E4CEFD22ED3E
:1006DF00F8F5F0EE8420D21CFEADF075F008EF2F88
:1006EF00FFED33FD4007985006D5F0F222C398FD79
:0506FF000FD5F0EA2216
:0E070400C3E49FFFE49EFEE49DFDE49CFC2206
:10071200E493FC740193FD740293FE740393FF222D
:10072200E493F8740193F9740293FA740393FB222D
:10073200FAE6FB0808E6F925F0F618E6CA3AF622C8
:10074200D083D082F8E4937012740193700DA3A346
:1007520093F8740193F5828883E47374029368605A
:06076200EFA3A3A380DF5A
:10191D00EFB40A07740D121928740A309811A8999A
:10192D00B8130CC2983098FDA899C298B811F6302A
:07193D0099FDC299F5992202
:10076800E3F5F009E208B5F06D606B80F3E3F5F0AE
:1007780009E608B5F060605E80F387F009E608B521
:10078800F054605280F487F009E208B5F0486046FA
:1007980080F488828C8387F009E0A3B5F03860364E
:1007A80080F488828C8387F009E493A3B5F02760EE
:1007B8002580F388828C83E3F5F009E0A3B5F01671
:1007C800601480F388828C83E3F5F009E493A3B581
:1007D800F004600280F2020893808580E7808E80B2
:1007E800D2803C8015806C807E809B80B5808B8019
:1007F800A1804F8070803A02089F89828A83ECFA30
:10080800E493F5F0A3C8C582C8CCC583CCE493A310
:10081800C8C582C8CCC583CCB5F070606E80E1894C
:10082800828A83E493F5F0A3E208B5F05E605C8009
:10083800F289828A83E0F5F0A3E608B5F04D604BB3
:1008480080F389828A83E0F5F0A3E208B5F03C6082
:100858003A80F389828A83E493F5F0A3E608B5F039
:100868002A602880F2805389828A83ECFAE493F51F
:10087800F0A3C8C582C8CCC583CCE0A3C8C582C8CC
:10088800CCC583CCB5F004600280E27FFFB5F002EE
:100898000F2240027F012289828A83ECFAE0F5F078
:1008A800A3C8C582C8CCC583CCE0A3C8C582C8CCC0
:1008B800C583CCB5F0D560D380E389828A83ECFA0E
:1008C800E0F5F0A3C8C582C8CCC583CCE493A3C81F
:1008D800C582C8CCC583CCB5F0B160AF80E288F0E2
:1008E800ED2402B4040050A3F582EB2402B4040002
:0B08F800509923234582239007E173F1
:10090300E709F60870FA8046E709F20870FA803EB4
:1009130088828C83E709F0A370FA807EE309F608E6
:1009230070FA8076E309F20870FA806E88828C830D
:10093300E309F0A370FA806289828A83E0A3F60850
:1009430070FA805689828A83E0A3F20870FA804A9B
:1009530080D280FA80C680D4806580F28031801096
:1009630080A680EA809A80A880DA80E280CA8031FB
:1009730089828A83ECFAE493A3C8C582C8CCC58371
:10098300CCF0A3C8C582C8CCC583CC70E9800D89DF
:10099300828A83E493A3F60870F9ECFAA9F0EDFBDD
:1009A3002289828A83ECFAE0A3C8C582C8CCC583B6
:1009B300CCF0A3C8C582C8CCC583CC70EA80DD89DE
:1009C300828A83E493A3F20870F980CE88F0ED2441
:1009D30002B4040050C4F582EB2402B4040050BAFC
:0909E3002323458223900953737C
:1019D200E4FFFE120645600C0FEF70010E09E9707C
:0519E200F20A80EF2273
:1009EC00EF4E6012EF60010EEDBB010B89828A8322
:1009FC00F0A3DFFCDEFA2289F05007F709DFFCA92F
:0C0A0C00F022BBFEFCF309DFFCA9F02285
:00000001FF
