:10185B0073717274003D002566006C6F6731300048
:10186B0073696E00636F730074616E00636C656106
:02187B007200F9
:1017DB00203222000000000000000000000000008A
:1017EB0000000000000000000000000000000000EE
:1017FB0000000000000000000000000000000000DE
:05180B000000000000D8
:1018B800D3EF9400EE9400400F7DC77C01DCFEDD81
:0818C800FAEF1F70EB1E80E82F
:0118D00022F5
:100E5B00E4F554F555F556F557F558F559F55AF59A
:100E6B005EF55DF55CF55B1218381214898B588AA8
:100E7B0059895A785B7C187DFF1208E6EF600302F4
:100E8B000F1878227C00FDAB58AA59A95A1209CF2A
:100E9B007B007A007922E4FDFF1217A178607C18A1
:100EAB007DFFAB58AA59A95A1208E6EF60511214EC
:100EBB00898B588A59895A120645FFC3943040DCF6
:100ECB00EFD3943950D67D01E4FF1218FDAB58AA2D
:100EDB0059A95A120645FB7A00AE56AF577C007DD6
:100EEB000A12069DEF2BFFEA3ECF24D0F557EF34C5
:100EFB00FFF556AB57FAE4FD7F04121708809DAC43
:100F0B0056AD57E412000812157902119578657CDD
:100F1B00187DFFAB58AA59A95A1208E6EF600302D5
:100F2B000FB878227C00FDAB58AA59A95A1209CFE9
:100F3B007B007A007922E4FDFF1217A178607C1800
:100F4B007DFFAB58AA59A95A1208E6EF605112144B
:100F5B00898B588A59895A120645FFC3943040DC55
:100F6B00EFD3943950D67D01E4FF1218FDAB58AA8C
:100F7B0059A95A120645FB7A00AE56AF577C007D35
:100F8B000A12069DEF2BFFEA3ECF24D0F557EF3424
:100F9B00FFF556AB57FAE4FD7F04121708809DACA2
:100FAB0056AD57E4120008121384021195786B7C2E
:100FBB00187DFFAB58AA59A95A1208E6EF60030235
:100FCB00105878227C00FDAB58AA59A95A1209CFA8
:100FDB007B007A007922E4FDFF1217A178607C1860
:100FEB007DFFAB58AA59A95A1208E6EF60511214AB
:100FFB00898B588A59895A120645FFC3943040DCB5
:10100B00EFD3943950D67D01E4FF1218FDAB58AAEB
:10101B0059A95A120645FB7A00AE56AF577C007D94
:10102B000A12069DEF2BFFEA3ECF24D0F557EF3483
:10103B00FFF556AB57FAE4FD7F04121708809DAC01
:10104B0056AD57E4120008121244021195786F7CCA
:10105B00187DFFAB58AA59A95A1208E6EF60030294
:10106B0010F878227C00FDAB58AA59A95A1209CF67
:10107B007B007A007922E4FDFF1217A178607C18BF
:10108B007DFFAB58AA59A95A1208E6EF605112140A
:10109B00898B588A59895A120645FFC3943040DC14
:1010AB00EFD3943950D67D01E4FF1218FDAB58AA4B
:1010BB0059A95A120645FB7A00AE56AF577C007DF4
:1010CB000A12069DEF2BFFEA3ECF24D0F557EF34E3
:1010DB00FFF556AB57FAE4FD7F04121708809DAC61
:1010EB0056AD57E412000812122E02119578737C3C
:1010FB00187DFFAB58AA59A95A1208E6EF600302F4
:10110B0011C678227C00FDAB58AA59A95A1209CFF7
:10111B007B007A007922E4FDFF1217A178607C181E
:10112B007DFFAB58AA59A95A1208E6EF6051121469
:10113B00898B588A59895A120645FFC3943040DC73
:10114B00EFD3943950D67D01E4FF1218FDAB58AAAA
:10115B0059A95A120645FB7A00AE56AF577C007D53
:10116B000A12069DEF2BFFEA3ECF24D0F557EF3442
:10117B00FFF556AB57FAE4FD7F04121708809DACC0
:10118B0056AD57E41200081212768F5E8E5D8D5CA1
:10119B008C5B7562FF7563187564628F688E678DE3
:1011AB00668C657B007A007922120A487B007A00F4
:1011BB0079227D01E4FF1217A1801878777C187DC6
:1011CB00FFAB58AA59A95A1208E6EF7006FD7F012A
:0B11DB0012187DE4F556F557020E7562
:0300000002161FC6
:0C161F00787FE4F6D8FD75817A0216662B
:10187D00C2A2ED24FF92A0C2A18F807F017E001233
:0E188D0018B8D2A27F057E001218B8C2A2229F
:10189B00E4F508C2A2ED24FF92A0D2A1D2A2E5806A
:0C18AB0012068B7F017E001218B8C2A24A
:0118B700220E
:1018D100E4F509FB7A007909FD12189BE50930E767
:0618E100037F01227F00DD
:0118E70022DE
:0E18FD00ED75F040A424802FFFE4FD02187D5D
:07190B00E4FD7F0102187DDD
:081708008F5F8D608A618B6226
:10171000E4F563AF62AE61EF4E600B7C007D0A12B0
:1017200006AF056380F1E56245616031E55F2563E1
:10173000FFAD601218FDAE61AF627C007D0A12063B
:10174000AFED2430FF7D0112187DAE61AF627C00E9
:0D1750007D0A1206AF8E618F62156380C99D
:01175D002269
:0617A1008B5F8A60896184
:1017A700E4F5621218FDE4F562AB5FAA60A9611265
:1017B70018E8C3E5629FE49E5019AB5FAA60A96170
:1017C70085628275830012065EFF7D0112187D0512
:0317D7006280D657
:0117DA0022EC
:10183800E4FD7F3812187DE4FD7F0C12187DE4FD6D
:101848007F0612187DE4FD7F0112187DE4FD7F807C
:0318580002187DF6
:10175E0030003100320033003400350036003700DF
:10176E0038003900636C656172003D002B002D005E
:10177E002A0073717274006C6F6731300073696E7A
:10178E0000636F730074616E0000000000000000C3
:03179E0000000048
:1016AB00E4F569F56A7590F0C2A7E59064F0604ABD
:1016BB007F0A7E001218B8E59064F0603DE590F467
:1016CB0054F0F56975900FD2A7E590B40F0820A7D9
:1016DB00054369058007E590F4540F4269E56AC339
:1016EB0094325013E590B40F0320A70B7F647E0058
:0C16FB001218B8056A80E6AF69227F0073
:0117070022BF
:10148900E4785F7C00FD7BFF7A177997FE7F0A126B
:10149900061F1216ABEF120742151311151A121572
:1014A900211415521515361814FE21150522150C8F
:1014B90024155925153D2814E94114F04214F7441F
:1014C90015604515444815288114E282152F8415A5
:1014D9006785154B880000156E7BFF7A17795E22A8
:1014E9007BFF7A177960227BFF7A177962227BFF6B
:1014F9007A177964227BFF7A177966227BFF7A173C
:101509007968227BFF7A17796A227BFF7A17796CCF
:10151900227BFF7A17796E227BFF7A177970227BFB
:10152900FF7A177972227BFF7A177978227BFF7A03
:1015390017797A227BFF7A17797C227BFF7A1779D0
:101549007E227BFF7A177980227BFF7A17798522A1
:101559007BFF7A17798B227BFF7A17798F227BFFA2
:0B1569007A177993227B007A00795FEB
:011574002254
:1000030075F020800E75F010800575F0087D007E78
:10001300007F003392D530D503120704EC33401030
:10002300EF33FFEE33FEED33FDEC33FCD5F0ED2281
:0E003300E5F0247EA2D513CC92E7CDCEFF22BD
:1009EC00E5762462F8E6057622785F3007027862B5
:1009FC00E475F0011207320206452000EB7F2ED27F
:100A0C00008018EF540F2490D43440D4FF30040BE2
:100A1C00EF24BFB41A0050032461FFE57760021580
:100A2C0077057AE57A7002057930070D785FE47501
:100A3C00F001120732EF02068B0218117403D20771
:100A4C008003E4C207F5768B5F8A608961E4F577F1
:100A5C00F579F57AE57760077F20120A2780F5751E
:100A6C0078FFC201C200C202C203C205C206C2089C
:100A7C001209F5FF700D3007057F00120A38AF7AA6
:100A8C00AE7922B4255FC2D5C2041209F5FF24D079
:100A9C00B40A00501A75F00A787730D50508B6FFFD
:100AAC000106C6A426F620D5047002D20380D924F0
:100ABC00CFB41A00EF5004C2E5D204020D25D201C6
:100ACC0080C6D20080C0D20280BCD2D580BAD205FA
:100ADC0080B47F20120A272002077401B5770040EA
:100AEC00F11209ECFF120A27020A60D208D2068022
:100AFC00951209ECFB1209ECFA1209ECF94A4B704D
:100B0C0006791C7A0E7BFF20022EE577602A7E0088
:100B1C008E8275830012065E60060EEE657870F0AC
:100B2C00C2D5EBC0E0EAC0E0E9C0E0EE120D85D022
:100B3C00E0F9D0E0FAD0E0FB120645FF60AAEBC06A
:100B4C00E0EAC0E0E9C0E0120A27D0E02401F9D0C5
:100B5C00E03400FAD0E0FBE5780460DCD578D9808D
:100B6C0087D20280A2120D6860F7E578700104123A
:100B7C000360A978600DE578600914F578120E0F02
:100B8C00EF60F3EA30E702F404C3995077EAF425F6
:100B9C00780430E701E404F578800D120D6860C12B
:100BAC00EA05782578120360EA7875F630E701E4F7
:100BBC00257804D5780420050114120D85E4C0E0D5
:100BCC00120E0F7875E6601320E70714F6120A0F61
:100BDC00802204F6D0E014C0E07F00120A0FE57802
:100BEC006007120A061578800B300503120A06D02E
:100BFC00E0020A60D0E00480C5120D6860A0E578C0
:100C0C00041203607875EAF6E578200502600104A9
:050C1C002404120D8507
:100C210074FF04C0E0120E0F120A0FE578200502CE
:100C31006003120A06D0E0B578E87F45120A1978F8
:100C410075E67F2B30E7047F2DF404C0E0120A27FC
:100C5100D0E075F00A84C0F0120A10D0E0120A1038
:100C6100020A60791080027908C206C2088008D29F
:100C7100D5790A8004790AC2D5E578047002F5783D
:100C8100E4FAFDFEFF1209ECFC7B082001131209B6
:100C9100ECFD7B1030000A1209ECFE1209ECFF7B1F
:100CA10020EC3382D592D55013C3E43000069FFF68
:100CB100E49EFEE42001039DFDE49CFCE4CBF8C22C
:100CC10001EC700CCFCECDCCE824F8F870F380178E
:100CD100C3EF33FFEE33FEED33FDEC33FCEB33FBBF
:100CE100994002FB0FD8E9EB300105F8D0E0C44888
:100CF100B201C0E00AEC4D4E4F78207B0070C2EA91
:100D0100B5780040BCC0E0120D87D0F0D0E02001E2
:100D110004C4C0E0C4B201C0F0120A10D0F0D5F092
:100D2100EB020A601207420AFD530C64580ACE4CCA
:100D31000ACA420C684F0C70440C70490AE3430C18
:100D410076550BA7460C05450B71470E3C500AD250
:100D51002D0AD62E0AF92B0ADA230AF7200E252AA4
:100D61000A924800000AF1E578B4FF03757806128B
:100D710009ECFC1209ECFD1209ECFE1209ECFF78FA
:100D81006E02038F790AA2D5200314300509B91028
:100D9100020404B9080104A2D5200602500104206E
:100DA10002689202B577005034C0E07F2030031909
:100DB1007F30A20272067205500F120DDEC202C20E
:100DC10006C205C2087F30800F300503E9C0E0127A
:100DD1000A27300503D0E0F9D0E0B577CC3005170C
:100DE1007F30B9100C120A277F583004077F7880B2
:100DF10003B90803120A273002057F2D020A277F53
:100E0100202008F87F2B2006F322920280CF7F005A
:100E1100B407005005246EF8E6FF22286E756C6C4D
:100E21002900D2011209EC3001F8C201787730D5DE
:100E31000108F6020A922D504349581209EC240385
:100E4100B405004001E4900E3793120A18743A1267
:0A0E51000A18D203757704020C643E
:101354003E9248DA3ECCCCCD3F2AAAAB40000000F6
:101364003F8000003F9837F03FB504F33FD744FC7B
:101374003E3172173EB172173F0515913EDE5BD9BF
:10138400D2008002C200EDD2E7F8CD33EC33047012
:101394000BBD800592D502008002007640FBD31479
:1013A40060F2F5F07C3FEE7A00C39496C8948B40CB
:1013B400230AC89469C8941A401A0AC89468C8943D
:1013C4001F40110AC8945AC89425400805F07A00B1
:1013D400CDC2E7CDC0F08C5F8D608E618F62EA2351
:1013E40023C0E02464F582E43413F5831207221247
:1013F4000092ECC0E0EDC0E0EEC0E0EFC0E0120708
:1014040012A85FA960AA61AB6212008ED0E0FBD083
:10141400E0FAD0E0F9D0E0B2E7F812028C8C5F8DEC
:10142400608E618F629013547403120492A85FA9B2
:1014340060AA61AB62120183D0E0600F2470F58270
:10144400E43413F5831207221200928C5F8D608EB0
:10145400618F62D0E0C3947FFDE49400FC12000825
:101464007B187A727931783F120183A85FA960AA48
:1014740061AB6212009230000B7BD97A5B79DE7823
:051484003E120183226D
:1015750002007622EDA2E7D2E7F9EC3340F260F300
:10158500B4FF08ED547F70E8020080F82481C2E0C2
:10159500C0E0F40428FAC313FCED92E7FD8C5F8DDF
:1015A500608E618F62EEA2E7E9BA7F02C313340051
:1015B5009400FA75F091A4E5F013F494FE8AF0A472
:1015C50033E5F033248CD313FDE492E7FE7F007CF2
:1015D5003F758302ECC0E0F8EDC0E0F9EEC0E0FA3B
:1015E500EFC0E0FBAC5FAD60AE61AF6212028CD0C4
:1015F500E0FBD0E0FAD0E0F9D0E0F8120092ED641B
:1016050080FD30E7011CD583CBED33CC33F8D0E03A
:0A161500A2E71328C313CC13FD2233
:1011E6003A70FA83BCAAE9E43E81E0F8BF9DE9E6DD
:1011F6003F80000039283C1ABB9969663DA335E358
:10120600BF255DE73FC90FDB418DDBCCC44936EE18
:1012160045C9913FC5B0F83D3F800000C317F5347E
:10122600452FFA73C60AFDDD1212D504A2E192001B
:101236001420E0159011E67404120492802612120E
:10124600D530E102B20020E0EB8C5F8D608E618FBD
:10125600629011FA7404120492A85FA960AA61ABA5
:1012660062120183ED4C6007300004EC6480FC22BE
:101276001212D5C0E08C5F8D608E618F6290121E57
:101286007403120492A85FA960AA61AB621201837B
:10129600ECC55FFCEDC560FDEEC561FEEFC562FF06
:1012A60090120E7403120492D082A85FA960AA61FC
:1012B600AB62E58230E00712028CB20080A6EFCB6B
:1012C600FFEECAFEEDC9FDECC8FC12028C8095ED5E
:1012D60033EC547FCC33920024605007D0E0D0E04A
:1012E6000200767B837AF97922783E120183EDF942
:1012F60033ECF83324815011EFFBEEFA1203291276
:101306000003ECB2E7FC120092ED33EC33602F24BD
:1013160003F8C313FCED92E7FDE82481E4501FECCB
:10132600F8EDF9EEFAEFFB120329EF04C2E0FCF543
:101336008212000DECB2E7FC120092E58203FAED90
:0E13460033EC3360071413FCED92E7FDEA224E
:10004100E9D2E7C933E833F892D5EDD2E7CD33EC05
:0700510033FC5002B2D5227E
:10005800EC30E7100FBF000C0EBE00080DBD000409
:100068000BEB6014A2D5EB13FCED92E7FD2274FFB5
:10007800FCFDFEFF22E480F8A2D574FF13FC7D800E
:03008800E480EF22
:10008B00020076E86480F8E933E83360110460F02D
:10009B00ED33EC337009E8FCE9FDEAFEEBFF2204DB
:1000AB0060DED3EB9FEA9EE99DE8C2E78CF0C2F7D6
:1000BB0095F0400CE8CCF8E9CDF9EACEFAEBCFFBA2
:1000CB0012004185D0F05804700320D5B3E80470BA
:1000DB00075002B2D502008092D5EC0460F7E4CC55
:1000EB00C0E0C398F8603B94186008400DD0E0FB6B
:1000FB00020058E4FBFAC9FC8028E830E406E4C9A6
:10010B00FBE4CAFCE830E305E4C9CACBFCE85407BE
:10011B006010F8C3E913F9EA13FAEB13FBEC13FCC9
:10012B00D8F130F52FC3E49CFCEF9BFFEE9AFEED6C
:10013B0099FDD0E0FBEF4E4D4C701222DB03020019
:10014B007DEC2CFCEF33FFEE33FEED33FDED30E7B2
:10015B00EB020058EF2BFFEE3AFEED39FDD0E0FB42
:10016B0050130BBB0003020080ED13FDEE13FEEFEB
:08017B0013FFEC13FC02005815
:10018300EC4D6011E8497017ED33EC3304600DE476
:10019300FCFFFEFD22E933E8330470F80200761217
:1001A300004158046009E4CC248150062850090218
:1001B300008028400302007DC0E0EB4A7044B98010
:1001C30006D0E0FB02006CEF4E701CBD8008EBFF15
:1001D300EAFEE9FD80EBE98DF0A4FEE5F002026C96
:1001E300E9CDF9EAFEEBFFEF89F0A4FCE5F0CE8957
:1001F300F0A42EFFE435F0CD89F0A42DFEE435F014
:100203008067EF4E7005BD80D780C3EF8BF0A4AC41
:10021300F0EE8BF0A42CFCE435F0F8EF8AF0A42C7C
:10022300E5F038FCE433CB8DF0A42CFCE5F03BF88F
:10023300EE8AF0A42CFCE5F038F8E433CF89F0A47F
:100243002CFCE5F038CF3400CE89F0A42FFFE5F085
:100253003EFEE433C98DF0A42EFEE5F039CD8AF0DD
:10026300A42FFFE5F03EFEE43DFD33D0E0FB500755
:100273000BBB000F020080EC2CFCEF33FFEE33FED0
:06028300ED33FD020058FE
:10028900020080EC5D046005E85904700302007601
:10029900120041580460F6EC4860F2EC7004FDFE6F
:1002A900FF22C860DB2481C85009C3986002500648
:1002B90002007D9850CAF582E9294B4A7005AB8244
:1002C90002006C75F0007C1A7880C3EF9BEE9AED02
:1002D90099400DC3EF9BFFEE9AFEED99FDE842F0C0
:1002E900DC23ACF0D0E0FFD0E0FED0E0FDAB822013
:1002F900E7101BEB60BAEC2CFCEF33FFEE33FEED9D
:1003090033FD020058E803F830E705C0F075F00046
:10031900EF2FFFEE33FEED33FD40B830E7C280AA80
:10032900EDD2E7CD33EC3392D524814006E4FFFECC
:10033900FDFC22FCE4CFCECDCC24E0501174FF802B
:10034900EDC3CC13CCCD13CDCE13CECF13CF0470C8
:07035900F030D5DE020704BD
:10036000F920E72824F950037907E4F42402FB1864
:10037000DBFDE624FB5014E9600DE4F618E604F614
:0F038000B40A08E4F6D9F57401F60A22C2D522B0
:10038F00ED33EC3392D5FA602AB4FF33EDC2E77B3D
:10039F00FF60067A0379B4E4227A0379BD20D5048D
:1003AF007A0379B8224E614E002B494E46002D49F3
:1003BF004E4600E47A08F608DAFC7B00740722E860
:1003CF00C0E0ECC0E0EDC0E0EEC0E0EFC0E0EA75E9
:1003DF00F010A4CAABF075F04DA42BFBE435F0FC84
:1003EF00EA2410FAEB34C5FBEC34D9FCEDC2E7FF7D
:1003FF0075F056A4F42411C5F0F434C58FF0A42A77
:10040F00E5F03BE43CF620E71412050FD0E0FFD0F7
:10041F00E0FED0E0FDD0E0FC12028C8014F4041258
:10042F00050FD0E0FFD0E0FED0E0FDD0E0FC1201E0
:10043F0083D0E0F8E6FAEDD2E7CD33EC332482FB3C
:10044F00E4C3CF33CFCE33CECD33CD33DBF37B0706
:10045F0075F00A846004F6081B0AE5F0F6088FF0C1
:10046F00740AA4FFACF08EF0740AA42CFEACF0500A
:10047F00010C8DF0740AA42CFDE435F0F608DBDED8
:03048F00740722CD
:10049200C0E0EFFBEEFAEDF9ECF8120183D0E0F5E3
:1004A200F0EFFBEEFAEDF9ECF8120712A3A3A3A307
:1004B200E8C0E0E9C0E0EAC0E0EBC0E0C0F0120151
:1004C20083120722A3A3A3A3120092D0F0D0E0FBD1
:0D04D200D0E0FAD0E0F9D0E0F8D5F0D42267
:1004DF003F8000004120000042C80000447A000025
:1004EF00461C400047C35000497424004B189680A7
:1004FF004CBEBC205A0E1BCA6753C21C749DC5AE9E
:10050F00FB60065407601C232312053DEB54386033
:10051F0009120529120538120183ECF8EDF9EEFAEC
:10052F00EFCB22EB12053880F1543803241C9004D2
:10053F00DFFE93FC0EEE93FD0EEE930ECE93FF2295
:10162B00020E5BE493A3F8E493A34003F68001F26C
:10163B0008DFF48029E493A3F85407240CC8C333C0
:10164B00C4540F4420C8834004F456800146F6DF8F
:10165B00E4800B01020408102040809017DBE47E2D
:10166B00019360BCA3FF543F30E509541FFEE49384
:10167B00A360010ECF54C025E060A840B8E493A34B
:10168B00FAE493A3F8E493A3C8C582C8CAC583CA76
:10169B00F0A3C8C582C8CAC583CADFE9DEE780BE2E
:0118100000D7
:10054F00E709F608DFFA8046E709F208DFFA803E8E
:10055F0088828C83E709F0A3DFFA8032E309F6087B
:10056F00DFFA8078E309F208DFFA807088828C83E3
:10057F00E309F0A3DFFA806489828A83E0A3F60897
:10058F00DFFA805889828A83E0A3F208DFFA804C71
:10059F0080D280FA80C680D4806980F28033801048
:1005AF0080A680EA809A80A880DA80E280CA8033B1
:1005BF0089828A83ECFAE493A3C8C582C8CCC58329
:1005CF00CCF0A3C8C582C8CCC583CCDFE9DEE780F9
:1005DF000D89828A83E493A3F608DFF9ECFAA9F078
:1005EF00EDFB2289828A83ECFAE0A3C8C582C8CCCE
:1005FF00C583CCF0A3C8C582C8CCC583CCDFEADEE7
:10060F00E880DB89828A83E493A3F208DFF980CC48
:10061F0088F0EF60010E4E60C388F0ED2402B40441
:10062F000050B9F582EB2402B4040050AF232345E8
:06063F00822390059F7369
:10064500BB010689828A83E0225002E722BBFE02B3
:09065500E32289828A83E49322E6
:10065E00BB010CE58229F582E5833AF583E0225051
:10066E0006E92582F8E622BBFE06E92582F8E2229B
:0D067E00E58229F582E5833AF583E49322B5
:10068B00BB010689828A83F0225002F722BBFE014E
:02069B00F32248
:10069D00EF8DF0A4A8F0CF8CF0A428CE8DF0A42E71
:0206AD00FE222B
:1006AF00BC000BBE0029EF8DF084FFADF022E4CC2F
:1006BF00F875F008EF2FFFEE33FEEC33FCEE9DECF8
:1006CF00984005FCEE9DFE0FD5F0E9E4CEFD22ED3E
:1006DF00F8F5F0EE8420D21CFEADF075F008EF2F88
:1006EF00FFED33FD4007985006D5F0F222C398FD79
:0506FF000FD5F0EA2216
:0E070400C3E49FFFE49EFEE49DFDE49CFC2206
:10071200E493FC740193FD740293FE740393FF222D
:10072200E493F8740193F9740293FA740393FB222D
:10073200FAE6FB0808E6F925F0F618E6CA3AF622C8
:10074200D083D082F8E4937012740193700DA3A346
:1007520093F8740193F5828883E47374029368605A
:06076200EFA3A3A380DF5A
:10181100EFB40A07740D12181C740A309811A899B4
:10182100B8130CC2983098FDA899C298B811F63037
:0718310099FDC299F599220F
:10076800E3F5F009E208B5F06D606B80F3E3F5F0AE
:1007780009E608B5F060605E80F387F009E608B521
:10078800F054605280F487F009E208B5F0486046FA
:1007980080F488828C8387F009E0A3B5F03860364E
:1007A80080F488828C8387F009E493A3B5F02760EE
:1007B8002580F388828C83E3F5F009E0A3B5F01671
:1007C800601480F388828C83E3F5F009E493A3B581
:1007D800F004600280F2020893808580E7808E80B2
:1007E800D2803C8015806C807E809B80B5808B8019
:1007F800A1804F8070803A02089F89828A83ECFA30
:10080800E493F5F0A3C8C582C8CCC583CCE493A310
:10081800C8C582C8CCC583CCB5F070606E80E1894C
:10082800828A83E493F5F0A3E208B5F05E605C8009
:10083800F289828A83E0F5F0A3E608B5F04D604BB3
:1008480080F389828A83E0F5F0A3E208B5F03C6082
:100858003A80F389828A83E493F5F0A3E608B5F039
:100868002A602880F2805389828A83ECFAE493F51F
:10087800F0A3C8C582C8CCC583CCE0A3C8C582C8CC
:10088800CCC583CCB5F004600280E27FFFB5F002EE
:100898000F2240027F012289828A83ECFAE0F5F078
:1008A800A3C8C582C8CCC583CCE0A3C8C582C8CCC0
:1008B800C583CCB5F0D560D380E389828A83ECFA0E
:1008C800E0F5F0A3C8C582C8CCC583CCE493A3C81F
:1008D800C582C8CCC583CCB5F0B160AF80E288F0E2
:1008E800ED2402B4040050A3F582EB2402B4040002
:0B08F800509923234582239007E173F1
:10090300E709F60870FA8046E709F20870FA803EB4
:1009130088828C83E709F0A370FA807EE309F608E6
:1009230070FA8076E309F20870FA806E88828C830D
:10093300E309F0A370FA806289828A83E0A3F60850
:1009430070FA805689828A83E0A3F20870FA804A9B
:1009530080D280FA80C680D4806580F28031801096
:1009630080A680EA809A80A880DA80E280CA8031FB
:1009730089828A83ECFAE493A3C8C582C8CCC58371
:10098300CCF0A3C8C582C8CCC583CC70E9800D89DF
:10099300828A83E493A3F60870F9ECFAA9F0EDFBDD
:1009A3002289828A83ECFAE0A3C8C582C8CCC583B6
:1009B300CCF0A3C8C582C8CCC583CC70EA80DD89DE
:1009C300828A83E493A3F20870F980CE88F0ED2441
:1009D30002B4040050C4F582EB2402B4040050BAFC
:0909E3002323458223900953737C
:1018E800E4FFFE120645600C0FEF70010E09E97067
:0518F800F20A80EF225E
:00000001FF
